:100000000C94B00B0C94D80B0C94D80B0C9481234B
:100010000C94D80B0C94D80B0C946C230C94D80B28
:100020000C94D80B0C94D80B0C94D80B0C94D80BC4
:100030000C94D80B0C94D80B0C94D80B0C94D80BB4
:100040000C9422230C94D80B0C94D80B0C94D80B42
:100050000C94D80B0C9458240C94D80B0C94D80BFB
:100060000C94D80B0C94D80B05A84CCDB2D44EB937
:100070003836A9020C50B9918688083CA6AAAA2A4B
:10008000BE000000803F07634236B79BD8A71A39ED
:10009000685618AEBAAB558C1D3CB7CC5763BD6DD6
:1000A000EDFD753EF6177231BF000000803F08007D
:1000B0000000BE922449123EABAAAA2ABECDCCCCE7
:1000C0004C3E00000080BEABAAAAAA3E0000000081
:1000D000BF000000803F0000000000084178D3BB53
:1000E0004387D1133D190E3CC3BD4282AD2B3E6800
:1000F000EC8276BED98FE1A93E4C80EFFFBE01C4F1
:10010000FF7F3F0000000000800400003FF0383017
:1001100033103F90381033902790261030903FF0E6
:1001200000008004800400003FF03870303023105D
:10013000279020102010279027903FF00000800487
:10014000800400003FF03CF03CF02010249024900C
:1001500020103CF03CF03FF00000800480040000E0
:100160003FF037B023103030387038703030231003
:1001700037B03FF000008004FCF4F860E044C08C2D
:10018000C11CC22CC44CC88CD10CA204C4048FFC6A
:10019000187CBCFC8000BFF81FF8B0281FF8B4081A
:1001A0001FF8B1081FF8B048BFF8B288BFF8800048
:1001B0008000BFF81FF8B0081808B9E819B8B838B7
:1001C0001838B9B8B9F8B0F8BFF8800015543FF83E
:1001D00015503FF01550387010203104138C22A8B0
:1001E00017FC2AA80000000015543FFC15543FFCE2
:1001F00015543C0414043CFC14543CFC005400A86A
:1002000000000000800400003FF03CF034B0249077
:10021000249027902310303038703FF00000800485
:10022000000458085808580840087FF860185FE82C
:100230005B685FE85B681CE85FE80000FF7CFE7CB1
:10024000FCECE8DCC84C984C882408200000000036
:10025000000000008004E01CF3FCE7FCCE0C8E1CC8
:100260009F9C1F3C1F0C0E0C0FFC87F881E4C00CF8
:10027000E01CF87C800400003FF03CF03CF03CF0D7
:10028000201020103CF03CF03CF03FF000008004D7
:10029000F87CF7BC00007FF80000BFF4AB54AB540F
:1002A000AB54AB54AB54AB54BFF4C00CF03CCE0CCD
:1002B000BF04B30473007F007E007C007C007C6080
:1002C000BC64BE04CF0CF03C81DC559C2904550075
:1002D000299055D003FCFF002E002670025082703A
:1002E000E600EE04800C001C3FF43FE03FC4378C76
:1002F0002318303038703CF03FF03FF000008004AD
:10030000058074B857A876B80580F97C4694AAA8E9
:10031000F97C068874A8578C75740698F03CCE4C0E
:10032000BC34B814188010804230607860F844C043
:100330008004B884CFCCF03CE01CC00C8FC49FE498
:100340009FE49FE400000300030003000780078090
:1003500003008004F87CC00CC00CCFCCCFCCCFCC39
:10036000CFCCCFCCCFCCC84CC84CCFCCC00CC00C61
:10037000F87C8004BCF43FF03870B7B4B6B4B5B4C0
:10038000B7B438703FF0BCF48004F87CFCFCF87C17
:10039000E01CC00CC00CC00CC00CC00CC00C800415
:1003A0008004FFFCF87CFCFC8004000020001000AE
:1003B00008001000270000000000000000000000FE
:1003C00000008004C3FC18001800C3FCFFFCFF0CF5
:1003D00000600060FF0CFFFCF0FC06000600F0FC73
:1003E0008FC4102020104CC89FE43DF03DF01DE06C
:1003F0003EF03F709FE48CC400003030F87CF33C4A
:10040000F4BCF6BCF4BCF6BCF4BCE49CC84CD02CE8
:10041000D02CC84CE79CF03C882408203830383079
:10042000383038303830383039303BB03FF03FF07A
:1004300000008004F1DC4100544441003847F7E0FB
:10044000FE4482001154A20054CD2FF09245F200D8
:100450007C4C220054D427E0554470207C45A040B9
:1004600054442280555421007C8820800841FFF0AC
:10047000FFFC0800020010003FF07FC02010404049
:10048000201044403FF0444020104440201044409D
:100490003FF0444020104A40201011803FF020607F
:1004A0002010C0207FE13FE04020840040208400F5
:1004B00040201FC040238840402088407FE0FFF05C
:1004C0004020800040209FE0402090204020B0202D
:1004D0004020D0207FE09FE04020102008800800CE
:1004E000FFF808000883FFF0020040803FE04080F2
:1004F000222041002220210022202200FFFC1200A5
:1005000002000C0005001300088020803060C070DD
:10051000C01B00200400080004000800FFF3FFF0E7
:100520008410408084104080841041008410210099
:10053000FFF022008410120004000C0004001300DD
:10054000040020800400C07004030020FEF90200B3
:100550001090C2001120420023FC020021278200DB
:100560007D248500A5FC8500252485002524848024
:1005700025FC88802524A8803D24C8402224907032
:10058000040C6020FF0049104400252047F9054075
:1005900045088FF07D0848104510081044901FF062
:1005A0007CA028104440481044A1CFF07EA0481001
:1005B000C5104810061C4850040808207FF80200A7
:1005C00008407FF0084040100840401008404010AC
:1005D000FFFC7FF0084040000840400008405FF00A
:1005E00008405010104090101040901020411FF013
:1005F0004040101008204FF0044020107FF90210F6
:100600000101021001017FD001010210FFFD06105F
:1006100001010A10028112100281221004414210CD
:1006200008210A10301D0450C0090020844087F0C2
:10063000428084905FF114900101E49001004490A5
:10064000CFE08490410107F04101F4905FF80490FD
:10065000410004905100749061018490410007F0C2
:10066000010004103EFC4200512082008A1087F0F5
:100670002001141017F9E810400852104FC881905B
:10068000484900904FC9F010484800104848701081
:100690004FC98110402800A040100040FC3F1E00C0
:1006A000FE3F1F80C70C19E0C30C1860C30C183044
:1006B000C30C1830C60C1830C60C1830FC0C18309F
:1006C000FC0C1860C00C1860C00C1980C03F1F8063
:1006D000C03F1E00010041007FF84FE001004000D4
:1006E0000101F4401FF0428010105FF01FF0620023
:1006F0001010C2001FF15FF0101042401FF0444084
:100700001010428010114180FFFC8E6017F0100025
:100710001413FFF02410200027F0200060804FC049
:10072000A08040802FFCC1002081410021C25FF0E9
:1007300021A0410022904100248C410028804500E6
:100740002080420023F21FC022111040FBF0904095
:1007500022121FC02A11104033F1104060005FC008
:10076000AFFC800020413FE0224325202279252054
:1007700022412520A541252048FD7FF01083DFC0C0
:1007800010825040208250402FFBDFC06082520018
:1007900061C25200A1C25FE022A3D20022A2510096
:1007A00024925100288A5090308BD45020825830A7
:1007B00020801010FE4102009250C200D648420034
:1007C000BA400200FFFB820010408500FE40850019
:1007D000104085001E408480F0A088800AA0A88078
:1007E000A910C840A21C90700408602010180100D5
:1007F000FEE3EFE04480212028804FF0FEFC412002
:100800001090CFE0FE90210010922FE05491410013
:10081000529141009110DFF01110810052114100FE
:1008200020123FF07BC5E1004A4522804A554280B4
:100830004A5544404A558820FFF557D04A55210073
:100840004A5521004A553FF04A55A1004A454920E2
:100850005A4511104455251088C9020004000400AF
:100860000A000FE01100082020801840DF6024807B
:1008700000180300FBE00C008A2030008A20DFF023
:100880008A201010FB2010108AC0101002001FF0E8
:10089000020010101042090013FD8900FC009FF0B7
:1008A00011101100310CB1003B14DFE05510910024
:1008B00050A1110090A31FE01041110010A11100E0
:1008C00011111100121D1FF01409100080380000D2
:1008D00047C1FFF0240100100401001005F11F10B2
:1008E000E41111102521111024A11110244111101F
:1008F00024A11F10291100102A1100105001FFF02F
:100900008FFD00100821FFC0044008007FF8080098
:1009100001000800010008000103FFF0FFF80800D3
:10092000010008000280080002800800044008005E
:1009300008200800301C2800C00810004FF80400F0
:100940002103FFF02100000007F00000E210FFC0CB
:10095000221000003FFC00002000FFC027F800002C
:10096000240800002C08FFC03408804027F880408D
:100970000408FFC00201F7E0FFFC4020840444208B
:1009800052504420518884209628F420182197F052
:10099000EFC290100200901042109FD042109010B1
:1009A0004210F0107FF09050001000201000000066
:1009B0001000FFE03FF08200201082004220820001
:1009C000820082000200BFE00500820005008280F4
:1009D00008808240088082201041020020390200F5
:1009E000C0127FF010FC8FE0FE80E2202103022085
:1009F00022FC02203C25E2202428822024A0822000
:100A000024A28FE024B9E42024A0842044A08420E0
:100A10005560A4208A20C420041C9FF00200080016
:100A2000FFFDFFC0020041007FF822000003FFF03D
:100A30007FF000004210FF80421080807FF08080B5
:100A40004010FF8040008080400080804000FF8098
:100A5000800080803FF07FC0201000002010000048
:100A60003FF000002011FFF0201004003FF00400D0
:100A700004802480448864403498843014A1041095
:100A80000480040004801400FFFC08002080901003
:100A90002FFCFE9028049090F14510902221FF90A9
:100AA000241010903000109067F0FE90A08092907B
:100AB0002080921020809A1020809410AFFC10505B
:100AC000400010200103E04001022040FFFA2FF017
:100AD000800A2040001220407FF3E44002022240BE
:100AE000020222402202204023E220402203E04072
:100AF000520222404A00014087F8008087F08200BD
:100B00004410BFF02410A01087F3C5104410888053
:100B10004410904017F0C000200180004FFA9FC0A1
:100B2000C94882004948820049488200494A8200F7
:100B30005FFD3FF0FBFD0F8008408880508088807B
:100B400023F81070FE0BA0002A489FC0224888405E
:100B50002248888022488480224885002248A200BA
:100B600020B0C580A10C9870460460205361766562
:100B700000466C6970004D61696E20536372656553
:100B80006E004A5000454E00434E00594553004EFA
:100B90004F004F4E004F464600496E666F7300424D
:100BA0006967005049440044697265637400536189
:100BB000766500426F6F7374004F666600536C6514
:100BC0006570005361766500426F6F737400536CFB
:100BD0006565700044656661756C7400416464000D
:100BE00044656C6574650052656E616D65004361B6
:100BF0006C696272617465004368616E676500527A
:100C0000657475726E0041626F7574004C616E6739
:100C1000004C6F636B004C4F5720566F6C00526F47
:100C2000746172790042757A7A65720053637265F5
:100C3000656E00436F6E74726F6C0054696D6572FF
:100C40000054656D7000546970001FE03FF070380B
:100C5000601860186018FFFCFCFCFCFCFCFCF87CD5
:100C6000F87CFCFC7FF81E1033382D7C25382D389D
:100C700025382D386D80DEC0BF40BF40DEC06180AA
:100C80003F007FF0FFE0C008C01CC038C870DCE443
:100C9000CFCCC78CC30CC00CC00CFFFC7FF800008D
:100CA00006000C0018F838F030307060707878F872
:100CB00078003C023F0C1FF80FF003C000007FF8E3
:100CC000FFFCC00CC30CCB4CDB6CDB6CD86CDCECDD
:100CD000CFCCC78CC00CFFFC7FF8030007800FC08F
:100CE0000CC01CE01CE03CF03CF07FF87FF8FCFC02
:100CF000FCFCFFFC7FF81140820021208FE023FCE8
:100D000082004A23E200FE209FF013F88080222018
:100D1000C0804221BFF0FBFA88800220848002203C
:100D200084801A208080E3FE8280020101000F424D
:100D30001FC0784110400840904008421FC0084141
:100D40001040FFFD104008405FC00840800008418F
:100D50003FE0084325201041252010412520204157
:100D6000252040417FF07FF84880020049000201C1
:100D7000FFF00201001002027F202200410023F058
:100D80007F00220008002200FF80220088802200CD
:100D9000888022008A8022008900FFFC080023F25C
:100DA0001FC022111040FBF0904022121FC02A11D8
:100DB000104033F1104060005FC0AFFC8000204164
:100DC0003FE0224325202279252022412520A541EC
:100DD000252048FD7FF01083DFC010825040208224
:100DE00050402FFFDFC06082520061C25200A1C29A
:100DF0005FE022A3D20022A2510024925100288E4B
:100E00005090308BD45020825830208010101040E9
:100E100047C017FC44402003F44023F844406208D4
:100E2000C440A3F8E440200154402FFD444028066C
:100E3000444023F844402040445020404850214042
:100E400050302080400020921FC03DF990402090FB
:100E5000904040901FC07BFF0000A0013FE021F9BF
:100E60000200FD09020021097FF021F90500210996
:100E700045002909888031F9107021082020303080
:100E800030002500202070F8460C410C3B0C330C40
:100E90002C0C250C1E0C160C110C0C0C060CFF0B4C
:100EA000F80BEE0BE70BE00BDC0BFF0BD40BCE0BC0
:100EB000C80BC30BBD0BB90BB30BAE0BA70BA30B2E
:100EC0009F0B990B950B920B8F0B8B0B880B850B44
:100ED000820B760B710B6C0B2D3E003E0053656C44
:100EE00065637420546970005D203D2000505B00F4
:100EF00054656D70004144430000000000003E5BFB
:100F00004F5B3E3E6B4F6B3E1C3E7C3E1C183C7E56
:100F10003C181C577D571C1C5E7F5E1C00183C183B
:100F200000FFE7C3E7FF0018241800FFE7DBE7FF37
:100F300030483A060E2629792926407F05050740C4
:100F40007F05253F5A3CE73C5A7F3E1C1C08081C85
:100F50001C3E7F14227F22145F5F005F5F06097FC3
:100F6000017F006689956A606060606094A2FFA25C
:100F70009408047E040810207E201008082A1C080B
:100F8000081C2A08081E101010100C1E0C1E0C3015
:100F9000383E3830060E3E0E06000000000000000D
:100FA0005F00000007000700147F147F14242A7FCD
:100FB0002A1223130864623649562050000807039A
:100FC00000001C2241000041221C002A1C7F1C2A18
:100FD00008083E080800807030000808080808006B
:100FE0000060600020100804023E5149453E004266
:100FF0007F400072494949462141494D3318141236
:101000007F1027454545393C4A494931412111095D
:10101000073649494936464949291E00001400004F
:101020000040340000000814224114141414140069
:101030004122140802015909063E415D594E7C12B5
:1010400011127C7F494949363E414141227F41414D
:10105000413E7F494949417F090909013E414151CA
:10106000737F0808087F00417F41002040413F0115
:101070007F081422417F404040407F021C027F7F56
:101080000408107F3E4141413E7F090909063E4167
:1010900051215E7F09192946264949493203017FBA
:1010A00001033F4040403F1F2040201F3F40384049
:1010B0003F631408146303047804036159494D43E2
:1010C000007F4141410204081020004141417F045A
:1010D0000201020440404040400003070800205441
:1010E0005478407F284444383844444428384444A1
:1010F000287F385454541800087E090218A4A49C70
:10110000787F0804047800447D40002040403D0082
:101110007F1028440000417F40007C047804787CE4
:10112000080404783844444438FC1824241818244B
:101130002418FC7C08040408485454542404043F34
:1011400044243C4040207C1C2040201C3C4030403B
:101150003C44281028444C9090907C4464544C4467
:101160000008364100000077000000413608000208
:10117000010204023C2623263C1EA1A161123A4032
:1011800040207A38545455592155557941215454A9
:101190007841215554784020545579400C1E5272A4
:1011A0001239555555593954545459395554545880
:1011B0000000457C410002457D420001457C40F035
:1011C000292429F0F0282528F07C54554500205486
:1011D000547C547C0A097F49324949493232484893
:1011E0004832324A4848303A4141217A3A42402016
:1011F00078009DA0A07D39444444393D4040403DA5
:101200003C24FF2424487E4943662B2FFC2F2BFFD0
:101210000929F620C0887E09032054547941000032
:10122000447D413048484A32384040227A007A0AA8
:101230000A727D0D19317D2629292F282629292971
:101240002630484D402038080808080808080838A3
:101250002F10C8ACBA2F102834FA00007B00000809
:10126000142A142222142A14089500220095AA0098
:101270005500AAAA55AA55AA000000FF0010101098
:10128000FF00141414FF001010FF00FF1010F010E6
:10129000F0141414FC001414F700FF0000FF00FF0A
:1012A0001414F404FC141417101F10101F101F1432
:1012B00014141F00101010F0000000001F10101078
:1012C000101F10101010F010000000FF1010101070
:1012D0001010101010FF10000000FF140000FF009D
:1012E000FF00001F10170000FC04F414141710175F
:1012F0001414F404F40000FF00F71414141414146C
:1013000014F700F7141414171410101F101F1414DE
:1013100014F4141010F010F000001F101F00000053
:101320001F14000000FC140000F010F01010FF105B
:10133000FF141414FF141010101F00000000F01010
:10134000FFFFFFFFFFF0F0F0F0F0FFFFFF000000F5
:101350000000FFFF0F0F0F0F0F38444438447C2A62
:101360002A3E147E02020606027E027E0263554970
:1013700041633844443C04407E201E2006027E0225
:101380000299A5E7A5991C2A492A1C4C7201724CA6
:10139000304A4D4D303048784830BC625A463D3E68
:1013A000494949007E0101017E2A2A2A2A2A444409
:1013B0005F444440514A444040444A51400000FF89
:1013C0000103E080FF000008086B6B08361236242A
:1013D00036060F090F060000181800000010100054
:1013E0003040FF0101001F01011E00191D171200EE
:1013F0003C3C3C3C000000000000000000240027B2
:10140000002A0000000000250028002B000000003A
:101410000023002600290004040404040404040238
:101420000202020202030303030303010204081081
:10143000204080010204081020010204081020004E
:101440000000080002010000030407000000000083
:10145000000000AED5F0A83FD300408D14A1C8DA3B
:101460001281CFD9F1DB40A4A6AF200021007F225A
:101470000007424F4F54204641494C4544004441E7
:101480004D414745440052202D3E200057202D3E1F
:1014900020004641494C2D00504153532D002F0050
:1014A000204D454D20434845434B200076312E3892
:1014B00074380076312E387438005265626F6F745C
:1014C000004572726F72002D20004144432D3E2072
:1014D000004F6E6C79206F6E65004F7574206F66DB
:1014E000204D656D002B002D004D4F44452000FF21
:1014F000FFFFFFFFFFFFFFFFFFFFFFFFFFFFFFFFFC
:10150000FFFFFFFFFFFFFFFFFFFFFFFFFFFFFFF0FA
:10151000001F0C7870001FF0001F0C7870001FF384
:10152000FF9FC39873FF9FF3FF9FC39873FF9FF3C1
:10153000019C03E673019FF3019C03E673019FF393
:10154000019C03E673019FF3019F0FE073019FF37A
:10155000019F0FE073019FF3019FC3E073019FF3AD
:10156000019FC3E073019FF3FF9F306073FF9FF300
:10157000FF9F306073FF9FF0001CCC6670001FF06F
:10158000001CCC6670001FFFFFFC03867FFFFFFF7F
:10159000FFFC03867FFFFFFFFFFC03867FFFFFF05A
:1015A0001800C39803F1FFF01800C39803F1FFF08F
:1015B000F9E3CC7E70FF9FF0F9E3CC7E70FF9FFFD4
:1015C000001F3C0783F01FFF001F3C0783F01FFC38
:1015D00019E3FC0600FE7FFC19E3FC0600FE7FF326
:1015E000181CFC1870CE1FF3181CFC1870CE1FF3CB
:1015F000181CFC1870CE1FFCE67CF007F3CF9FFC94
:10160000E67CF007F3CF9FF3E01CCFE670301FF3CA
:10161000E01CCFE670301FFC07FFC3867CCE7FFC4A
:1016200007FFC3867CCE7FF3001C0C00000FFFF386
:10163000001C0C00000FFFFFFFFC3C787F001FFF29
:10164000FFFC3C787F001FFFFFFC3C787F001FF011
:10165000001CCC18733E1FF0001CCC18733E1FF307
:10166000FF9C03867F0FFFF3FF9C03867F0FFFF332
:10167000019CF39E003E7FF3019CF39E003E7FF3AE
:10168000019FFF860F31FFF3019FFF860F31FFF3AC
:10169000019CFC667C0F9FF3019CFC667C0F9FF312
:1016A000019CFC667C0F9FF3FF9CFC00730E7FF394
:1016B000FF9CFC00730E7FF0001CFC187CFE1FF0EA
:1016C000001CFC187CFE1FFFFFFFFFFFFFFFFFFF5A
:1016D000FFFFFFFFFFFFFFFFFFFFFFFFFFFFFFFF1A
:1016E000FFFFFFFFFFFFFFFFFFFFFFFFFFFFFF56B3
:1016F000000FE01FC01FC03F803FF87FF07FE00772
:10170000C007800F000E001C0018001000560014C7
:10171000A03FF07FF8E01C6E18EC1C68186018E021
:101720001C6058E01C7FF83FF014A0430045525263
:101730004F5200484F4C44004845415400574F52C7
:101740004B5900424F4F535400534C454550004FA6
:1017500046460025000102040810204080000235A2
:1017600011241FBECFEFD8E0DEBFCDBF12E0A0E056
:10177000B1E0E0EDFAE702C005900D92A433B107A5
:10178000D9F726E0A4E3B2E001C01D92A63EB2075D
:10179000E1F71BE0C0EBDBE004C02197FE010E94F3
:1017A000223BCF3AD107C9F70E9459240C94663DD9
:1017B0000C94000080389105B0F46034710598F401
:1017C000E5E5F7E190E1969FD001A0781124A80FFC
:1017D0006770E60FF11D9491AE51BD4F442321F087
:1017E0008C91982B9C93089590958C919823FACF87
:1017F0002F923F924F925F926F927F928F929F9221
:10180000AF92BF92CF92DF92EF92FF920F931F930E
:10181000CF93DF9300D01F92CDB7DEB7C22ED12C6D
:101820009601280F391F37FD4FC0803891050CF005
:101830004BC0E9824A017B013C01402E512C16012C
:1018400027E0220E311C93E0359427949A95E1F716
:101850008B01B12CA12C1B821A82EA81FB8183E0CF
:10186000F595E7958A95E1F7EA0DFB1DE80DF91D61
:10187000E4918A819B818770992720E830E002C03B
:10188000359527958A95E2F7C901F0E0E223F9231F
:10189000EF2B41F04981B8018A819B81860D971D0C
:1018A0000E94DA0B8A819B8101969B838A838C1527
:1018B0009D059CF2A20CB31C0F5F1F4FC8018E192F
:1018C0009F09841595053CF20F900F900F90DF91C2
:1018D000CF911F910F91FF90EF90DF90CF90BF902D
:1018E000AF909F908F907F906F905F904F903F90C0
:1018F0002F9008954F925F926F927F928F929F9256
:10190000AF92BF92CF92DF92EF92FF920F931F930D
:10191000CF93DF9300D000D0CDB7DEB74B015C0191
:1019200029013A016701780120E030E0A9010E9415
:10193000363687FDA6C020E030E0A901C301B20120
:101940000E94363687FD9DC020E030E0A901C80125
:10195000B6010E94363687FD94C081E02091AC022A
:101960003091AD022130310509F080E08093CD0245
:101970008092920290929302A0929402B092950269
:101980004092960250929702609298027092990249
:10199000C0929A02D0929B02E0929C02F0929D0229
:1019A0006091C0027091C1028091C2029091C30205
:1019B0000E943B3620E030E04AE754E40E947C3845
:1019C00069837A838B839C8380929E0290929F028C
:1019D000A092A002B092A1029B01AC01C301B2018E
:1019E0000E949C362B013C014092A2025092A3021D
:1019F0006092A4027092A50229813A814B815C8198
:101A0000C701B6010E947C386B017C01C092A6021E
:101A1000D092A702E092A802F092A9028091AA02B5
:101A20009091AB02019769F5A501940160E070E027
:101A3000CB010E940A3860939E0270939F028093AC
:101A4000A0029093A102A301920160E070E0CB019B
:101A50000E940A386093A2027093A3028093A402AA
:101A60009093A502A701960160E070E0CB010E946F
:101A70000A386093A6027093A7028093A8029093FD
:101A8000A9020F900F900F900F90DF91CF911F91AF
:101A90000F91FF90EF90DF90CF90BF90AF909F900D
:101AA0008F907F906F905F904F90089580E0E2EE6E
:101AB000F2E081118FEF00248193819381938193D0
:101AC0000394D1F7EEECF2E017861686158614869D
:101AD0000895DF92EF92FF920F931F93CF93DF93BE
:101AE0007C01D22E8B01040F111DEB0177FF02C088
:101AF000D0E0C0E0C8010134110514F080E490E0AA
:101B0000C817D9073CF44D2DBE01C7010E94DA0B5E
:101B10002196F0CFDF91CF911F910F91FF90EF9021
:101B2000DF900895CF92DF92EF92FF920F931F9371
:101B3000CF93DF936B01122FEC017C01E40EF11CBB
:101B4000CE15DF0544F4202F412FB601CE010E94AF
:101B5000690D2196F5CFDF91CF911F910F91FF90E5
:101B6000EF90DF90CF9008952F923F924F925F9227
:101B70006F927F928F929F92AF92BF92CF92DF929D
:101B8000EF92FF920F931F93CF93DF9300D01F929A
:101B9000CDB7DEB75C011B01842F90E09B838A8365
:101BA00001E010E0081B190B2C01519441945108DD
:101BB000440C551CCC24C394D12CF12CE12C17FDE2
:101BC0000AC0EA81FB813197FB83EA83F2E04F0E82
:101BD000511C040D151D8FEFE81AF80A92E0C90E8A
:101BE000D11C0C0D1D1D8A81880F8F5F898321E018
:101BF000482F3101EA81FB816E1A7F0AB301C501CA
:101C00008E0D9F1D0E94690D41018E189F0821E0D5
:101C10004C2DB4018A819B818A0D9B1D0E94690D08
:101C200021E04981B301C5018E199F090E94690D08
:101C300021E04C2DB401C501EA81FB818E1B9F0B75
:101C40000E94690D8A819B81E816F9060CF4B7CFD2
:101C50000F900F900F90DF91CF911F910F91FF90F8
:101C6000EF90DF90CF90BF90AF909F908F907F903C
:101C70006F905F904F903F902F9008950F931F9318
:101C8000CF93DF93EC018B0140E001960E94DA0BC9
:101C900040E0B801CE0101970E94DA0BB8016F5FF6
:101CA0007F4F40E0CE010E94DA0BB801615071090C
:101CB00040E0CE010E94DA0B40E0B801CE01DF9196
:101CC000CF911F910F910C94DA0BAF92BF92CF92EC
:101CD000DF92EF92FF920F931F93CF93DF936C01EC
:101CE0007B018B01040F151FEB015E01AE18BF08CD
:101CF000C017D10759F06991D601ED91FC9101907F
:101D0000F081E02DC6010995892B79F7C501DF9196
:101D1000CF911F910F91FF90EF90DF90CF90BF90E8
:101D2000AF900895833081F028F4813099F08230AB
:101D3000A9F008958730A9F08830C9F08430B1F453
:101D4000809180008F7D03C0809180008F77809389
:101D50008000089584B58F7784BD089584B58F7D04
:101D6000FBCF8091B0008F778093B0000895809171
:101D7000B0008F7DF9CFCF93DF93282F30E0F901AA
:101D8000E15CFB4E8491F901E55DFB4ED491F901D4
:101D9000E95EFB4EC491CC23A1F081110E94920E0A
:101DA000EC2FF0E0EE0FFF1FE35FFB4EA591B49127
:101DB000EC91ED2381E090E009F480E0DF91CF9198
:101DC000089580E090E0FACF1F93CF93DF93282F00
:101DD00030E0F901E15CFB4E8491F901E55DFB4ED9
:101DE000D491F901E95EFB4EC491CC23A9F0162FE2
:101DF00081110E94920EEC2FF0E0EE0FFF1FED5FBD
:101E0000FB4EA591B4918FB7F894EC91111108C0D5
:101E1000D095DE23DC938FBFDF91CF911F91089582
:101E2000DE2BF8CFCF93DF9390E0FC01E55DFB4E16
:101E30002491895E9B4EFC0184918823C9F090E037
:101E4000880F991FFC01E750FC4EA591B491FC014D
:101E5000ED5FFB4EC591D49161110DC09FB7F89411
:101E60008C91209582238C938881282328839FBF7F
:101E7000DF91CF910895623051F49FB7F8943C916F
:101E8000822F809583238C93E8812E2BEFCF8FB701
:101E9000F894EC912E2B2C938FBFEACF1F93CF9306
:101EA000DF93182FEB0161E00E94120F209739F4A5
:101EB00060E0812FDF91CF911F910C94E40ECF3F12
:101EC000D10511F461E0F5CFE12FF0E0E15CFB4ECC
:101ED000E491E33031F140F4E130B1F0E230E1F08F
:101EE000C038D1057CF7E4CFE73029F1E83059F16B
:101EF000E430B1F780918000806280938000D093BD
:101F00008B00C0938A0004C084B5806884BDC7BDBF
:101F1000DF91CF911F91089584B5806284BDC8BDC3
:101F2000F7CF80918000806880938000D0938900F3
:101F3000C0938800EDCF8091B00080688093B0009E
:101F4000C093B300E5CF8091B00080628093B00071
:101F5000C093B400DDCF3FB7F894809152029091C6
:101F60005302A0915402B091550226B5A89B05C01A
:101F70002F3F19F00196A11DB11D3FBFBA2FA92F08
:101F8000982F8827BC01CD01620F711D811D911D05
:101F900042E0660F771F881F991F4A95D1F7089571
:101FA0008F929F92AF92BF92CF92DF92EF92FF9269
:101FB0004B015C010E94AB0F6B017C010E94AB0FD7
:101FC0006C197D098E099F09683E73408105910552
:101FD000A8F321E0821A9108A108B10888EEC80E82
:101FE00083E0D81EE11CF11C81149104A104B1040A
:101FF00029F7FF90EF90DF90CF90BF90AF909F9028
:102000008F9008952FB7F89460914E0270914F020F
:1020100080915002909151022FBF08950E940210AA
:102020008091D702962F981B8091D802882331F097
:102030009093D9021092D80280E008952091D602A0
:10204000921740F49F5F9217A0F491E093BF889598
:1020500013BE089581E08093D8026093D7028091E7
:10206000D2029091D30201969093D3028093D20230
:1020700081E0089584E98093BC008091BC0084FDD8
:10208000FCCF08958093BB0084E88093BC008091CE
:10209000BC0087FFFCCF089584EA8093BC00809148
:1020A000BC0087FFFCCF88E70C9442100E944C10C4
:1020B00080E48093BB0084E88093BC00E2EEF2E011
:1020C0009091BC0097FFFCCF91919093BB008093BF
:1020D000BC0096E0E23EF90799F78091BC0087FFCB
:1020E000FCCF0C943A10CF93C82F0E944C1080E084
:1020F0000E9442108C2F0E944210CF910C943A10F3
:1021000080389105B4F5480F592F511D41385105BC
:1021100014F040E850E0481BFB0177FD379633E0B0
:10212000F595E7953A95E1F7F695FE2FEE27F795A9
:10213000E795E80FF91FEE51FD4F6770772781E0B3
:1021400090E001C0880F6A95EAF7382F213041F4FA
:10215000415078F08191DF011197832B8C93F8CF58
:102160008095415030F09191DF01119798239C9315
:10217000F8CF0895CF92DF92EF92FF920F93CF9313
:10218000DF936C017B01C42FD22F6034710524F4DE
:10219000202FC6010E948010B7016D0F711D615084
:1021A0007109603471052CF4202F4C2FC6010E9458
:1021B0008010202F4D2FB701C6010E94690DC60166
:1021C0008C0F911D202F4D2FB7010197DF91CF91DB
:1021D0000F91FF90EF90DF90CF900C94690D2F92AC
:1021E0003F924F925F926F927F928F929F92AF92A7
:1021F000BF92CF92DF92EF92FF920F931F93CF93F4
:10220000DF93CDB7DEB72A970FB6F894DEBF0FBEC7
:10221000CDBF9A8389836A3061F5DC0152968C9137
:10222000B8E08B9F90011124E981FA81868597851A
:10223000820F931F978786871586148681E090E02A
:102240002A960FB6F894DEBF0FBECDBFDF91CF91B7
:102250001F910F91FF90EF90DF90CF90BF90AF90C4
:102260009F908F907F906F905F904F903F902F90B6
:1022700008956D3019F329813A813A872987D90168
:102280001C96AD90BC90B0E8AB16B1040CF07BC0CE
:10229000F901C684D784F0E4CF16D1040CF073C0E2
:1022A000D90152966C90529745E09501649E200D9D
:1022B000311D1124121613060CF065C0262C312C8A
:1022C000910153E0220F331F5A95E1F72C0D3D1D6C
:1022D000121613060CF057C05196BC91BB83E985CA
:1022E000FA85F089FC83649FB00111249B0127507B
:1022F000314F3A832983712CE981FA818491F5E089
:102300007F1201C080E0460138E0532E282F30E0D4
:102310003E832D834C8080FF4B80411004C03B8165
:102320008C813817E1F010E000E00615C0F4D5010B
:10233000A00FB11FB887AF83F12CE12CE61460F435
:10234000B701680D791D442D8F8198850E94DA0BA5
:10235000BFEFEB1AFB0AF2CF0F5F1F4FE6CF8D8165
:102360009E81959587955A94820C931C5110CECFDF
:102370007394E981FA813196FA83E983A20CB31C44
:10238000F6E07F12B9CFA985BA8552962C91529763
:10239000422F50E01C968D919C91B6E02B9F800DB2
:1023A000911D1124E985FA85958784872389222345
:1023B00009F444CF6AEF64039001659F300D112446
:1023C00020583F4F281739070CF038CFDF01019014
:1023D000F081E02D0190F081E02D6AE0CD010995BA
:1023E0002DCF682F8EEC92E00C94EF100F931F937B
:1023F000CF93DF938C01D0E0C0E0F801EC0FFD1F1C
:102400006491662341F08EEC92E00E94EF10892BDC
:1024100011F02196F2CFCE01DF91CF911F910F9154
:102420000895089590E080E008956F927F928F92D2
:102430009F92AF92BF92CF92DF92EF92FF920F9353
:10244000CF93DF937C01C62F01E020E340E370E0EF
:1024500060E00E94920D570123E0A20EB11C00E043
:102460002AE24AE263E070E0C5010E94920D70E04A
:1024700060E0C7010E943E0E67013FE2C30ED11C1F
:1024800070E060E0C6010E943E0E6FE270E0C7019E
:102490000E943E0E6FE270E0C6010E943E0EEC2FDD
:1024A000F0E0EE0FFF1FE55BFE4F8080918053E070
:1024B000E52EF12CD12CC12C60E8662E712CD0E0D9
:1024C000C0E0FE0133E0F595E7953A95E1F7EC0DB4
:1024D000FD1DE80DF91DE491CE0187709927930148
:1024E00002C0359527958A95E2F7C901F0E0E2230D
:1024F000F923EF2B69F0CE01880F991F8C0F9D1FD8
:1025000001E023E043E0B7018A0D9B1D0E94920D7C
:102510002196CE30D105A9F632E0C30ED11C83E05E
:10252000E80EF11C2DE2E216F10449F6DF91CF919D
:102530000F91FF90EF90DF90CF90BF90AF909F9062
:102540008F907F906F900895880F991F9093390214
:1025500080933802660F771F7093370260933602BC
:1025600080915D02882359F05093350240933402E4
:10257000220F331F3093700220936F0208955195FC
:1025800041955109F1CF0F931F93CF9380911D0176
:10259000882399F0CFEF0FEE11E061E085E00E9413
:1025A000E40EC8010197F1F760E085E00E94E40EB7
:1025B000C8010197F1F7C15081F7CF911F910F9199
:1025C00008953F924F925F926F927F928F929F9267
:1025D000AF92BF92CF92DF92EF92FF920F931F9331
:1025E000CF93DF93CDB7DEB72E970FB6F894DEBF4B
:1025F0000FBECDBF898380918F02882309F4A8C1C3
:1026000010925E0210925F021092600210926102BC
:10261000C0905E02D0905F02E0906002F090610294
:1026200089818111FDC18090780290907902A090FB
:102630007A02B0907B02A5019401C701B6010E9405
:102640000A382B013C0120E030E0A9010E946339E7
:1026500018160CF0A0C1C301B2010E94F538809198
:102660001801882309F4B8C18092490290924A0265
:10267000A0924B02B0924C02E12CF12C00EA10E443
:1026800020E030E040E450E46E31710540F0E12C90
:10269000F12C00E81FE320E030E040E05FE360E081
:1026A00070E080E391E40E947A0C8091CC02882350
:1026B00009F42AC10E9402106D837E838F8398875C
:1026C0008091B4029091B502A091B602B091B70288
:1026D0004D815E816F817885481B590B6A0B7B0B9E
:1026E0008091C0029091C102A091C202B091C30238
:1026F000481759076A077B0708F406C1E091AE0244
:10270000F091AF0280819181A281B38189839A8304
:10271000AB83BC83E091B202F091B3029C01AD01A6
:1027200060817181828193810E940A384B015C0132
:102730002091BC023091BD024091BE025091BF0277
:1027400069817A818B819C810E940A386B017C01AE
:102750002091A2023091A3024091A4025091A502BF
:10276000C501B4010E949C362091B8023091B90293
:102770004091BA025091BB020E940B382B013C01E0
:102780004092B8025092B9026092BA027092BB02B3
:102790003090CD0231101AC020919E0230919F02DC
:1027A0004091A0025091A102C701B6010E949C363F
:1027B0009B01AC01C301B2010E940A386093B802C8
:1027C0007093B9028093BA029093BB024090B80212
:1027D0005090B9026090BA027090BB021091C8028A
:1027E0009091C9029E87A091CA02AD870091CB0249
:1027F000212F392F4A2F502FC301B2010E94633974
:1028000018160CF0CCC0812F9E85AD85B02F80931B
:10281000B8029093B902A093BA02B093BB023320DE
:1028200009F4D6C020919E0230919F024091A002EF
:102830005091A102C501B4010E949C364B015C017C
:102840002091A6023091A7024091A8025091A902BE
:10285000C701B6010E949C369B01AC016091B80291
:102860007091B9028091BA029091BB020E940A381D
:10287000A50194010E940B386B017C019B01AC0106
:10288000612F7E858D85902F0E94363687FD18C07A
:102890001091C4029091C5029E87A091C602AD8797
:1028A0000091C702212F392F4A2F502FB601C7019F
:1028B0000E94363687FD04C01C2DDE86ED860F2D66
:1028C000E091B002F091B102812F9E85AD85B02FCD
:1028D00080839183A283B38389819A81AB81BC81F8
:1028E0008093BC029093BD02A093BE02B093BF023E
:1028F0008D819E81AF81B8858093B4029093B5029B
:10290000A093B602B093B7026091890270918A02D7
:1029100080918B0290918C020E94EE3889E02E9675
:102920000FB6F894DEBF0FBECDBFDF91CF911F91E0
:102930000F91FF90EF90DF90CF90BF90AF909F905E
:102940008F907F906F905F904F903F900C944E0FC0
:1029500080918E02609114017091150181110EC059
:10296000809176029091770220918D02BC01222302
:1029700029F060911301680F792F711D90E080E0BC
:102980000E943B3660935E0270935F028093600208
:10299000909361023DCEC301B20190585ECE80910A
:1029A000C4029091C502A091C602B091C702898766
:1029B0009A87AB87BC879C01AD01C301B2010E941D
:1029C000363687FF2CCF89859A85AB85BC851FCF8E
:1029D000812C912C540134CF20E030E040E05FE3C3
:1029E000C501B4010E940B38A70196010E9436363A
:1029F00087FF09C01092890210928A0210928B02FE
:102A000010928C0281CF80E090E0AFE7B3E4809336
:102A1000890290938A02A0938B02B0938C0274CFA8
:102A200020E030E040E05FE360918102709182023B
:102A30008091830290918402D5CF4F925F926F92E2
:102A40007F928F929F92AF92BF92CF92DF92EF923E
:102A5000FF92CF93DF936B017C01AC019B010E943D
:102A60009C364B015C01C2E0D1E02C813D814E815E
:102A70005F81C701B6010E949C36288139814A8155
:102A80005B810E940B382B013C01288539854A85E2
:102A90005B85C501B4010E949C369B01AC01C3015A
:102AA000B2010E940B382B013C01A7019601C50120
:102AB000B4010E949C362C853D854E855F850E9421
:102AC0009C369B01AC01C301B2010E940B38DF911F
:102AD000CF91FF90EF90DF90CF90BF90AF909F90FD
:102AE0008F907F906F905F904F90089580917A00C3
:102AF000806980937A008EE480937C0061E070E0CE
:102B000080E090E00E94D00F83B7817F826083BF16
:102B100080E130E020E093B7916093BF889593B750
:102B20009E7F93BF90917A0096FDFCCF40917800F4
:102B300050917900240F351F815069F780917A00F8
:102B40008F7780937A0084E0369527958A95E1F710
:102B500050E040E064EB7BE281E190E00E9470375E
:102B6000C901089580917A00806980937A0088EC89
:102B700080937C006AE070E080E090E00E94D00FDB
:102B800083B7817F826083BF80E270E060E093B7AB
:102B9000916093BF889593B79E7F93BF90917A0081
:102BA00096FDFCCF2091780030917900620F731F61
:102BB000815069F780917A008F7780937A007695BB
:102BC00067957695679562527A4090E080E00E9422
:102BD0003B3626EF38E24CE151E40E947C38089500
:102BE00090917A00906990937A008E5080648093DF
:102BF0007C0083B7817F826083BF20E290E080E029
:102C000033B7316033BF889533B73E7F33BF3091E0
:102C10007A0036FDFCCF4091780050917900840F06
:102C2000951F215069F720917A002F7720937A0021
:102C300025E0969587952A95E1F708958FE00E9403
:102C4000F015A0915902B0915A029C010E94FB37E5
:102C50000E943D3628E539E743E353E40E947C387F
:102C60000E94F538CB01089580916402882369F0B1
:102C700086E00E94BB0E892B41F06AE070E080E0A4
:102C800090E00E94D00F109264020895FC01019020
:102C90000020E9F73197AF01481B590BBC018EECBE
:102CA00092E00C94650E8F929F92AF92BF920F9319
:102CB0001F93CF93DF93CDB7DEB7A1970FB6F894EC
:102CC000DEBF0FBECDBF19A2423008F44AE08E012C
:102CD0000F5D1F4F842E912CB12CA12CA5019401C6
:102CE0000E94D937E62FB901CA01EA30F4F4E05D59
:102CF000D801EE938D01232B242B252B79F790E01F
:102D000080E0109719F0CD010E944616A1960FB6EB
:102D1000F894DEBF0FBECDBFDF91CF911F910F9111
:102D2000BF90AF909F908F900895E95CE1CFCF92D4
:102D3000DF92EF92FF92CF93DF934A305105E1F497
:102D40004AE097FF19C06B017C018DE20E94F111EE
:102D5000EC0166277727CB016C197D098E099F0945
:102D60004AE00E9453168C0F9D1FDF91CF91FF9078
:102D7000EF90DF90CF900895DF91CF91FF90EF908B
:102D8000DF90CF900C945316AB01BC01990F880BC8
:102D9000990B0C949716EF92FF920F931F93CF937A
:102DA000DF93142FC62FD0E0E82EF12CC701039635
:102DB0009093DB028093DA02CE0103969093DD02BA
:102DC0008093DC024093E002809190029091910206
:102DD000853F9140B8F08EE79EE00E94F6111630D4
:102DE00051F0BE016F5F7F4F00E027E249E5C70168
:102DF00001960E94BA10DF91CF911F910F91FF9021
:102E0000EF9008956AE070E0C9010E94C416E7CF10
:102E10004F925F926F927F928F929F92AF92BF92EA
:102E2000CF92DF92EF92FF920F931F93CF936B019C
:102E30007C01742EAC019B010E94C039882399F05B
:102E400085E292E0CF911F910F91FF90EF90DF907C
:102E5000CF90BF90AF909F908F907F906F905F903A
:102E60004F900C94461646015701E894B7F82FEF9F
:102E70003FEF4FE75FE7C501B4010E94C039811100
:102E80000DC02FEF3FEF4FE75FE7C501B4010E9490
:102E9000363618161CF489E292E0D4CF2FEF3FEFBC
:102EA0004FE75FE4C701B6010E94633918161CF4AE
:102EB0008DE292E0C7CF2FEF3FEF4FE75FECC70106
:102EC000B6010E94363687FDF3CF20E030E0A9013D
:102ED000C701B6010E94363610E000E087FF08C047
:102EE0008DE20E94F1118C01F7FAF094F7F8F0945A
:102EF000C0E060E070E080E09FE37C1641F020E0FD
:102F000030E040E251E40E947C38CF5FF6CFA70169
:102F100096010E940B382B013C010E94F5384B01B1
:102F20005C014AE00E9453167C01E00EF11ECC23A6
:102F3000B1F1C501B4010E943B369B01AC01C30154
:102F4000B2010E940A384B015C018EE20E94F1112D
:102F5000E80EF91EC15018F120E030E040E251E4E3
:102F6000C501B4010E949C362B013C010E94F5383A
:102F70004B01B12CA12C4AE0C501B4010E945316AB
:102F8000E80EF91EC501B4010E943B369B01AC015D
:102F9000C301B2010E940A384B015C01DBCFC701BB
:102FA000CF911F910F91FF90EF90DF90CF90BF9046
:102FB000AF909F908F907F906F905F904F9008950B
:102FC0004F925F926F927F928F929F92AF92BF9239
:102FD000CF92DF92EF92FF920F93CF93DF936C012A
:102FE000CEECD2E0198A81E0888B8A8B4B01770F77
:102FF000AA08BB082CE530E0D6010E94283BA501B9
:1030000094010E9470373D872C8784E390E09F876E
:103010008E870D2C000CEE08FF08C701B6010E9438
:103020003D362B013C01C501B4010E943D369B0198
:10303000AC01C301B2010E947C3820E030E048ECD2
:1030400052E40E949C3642E00E94081783E597E113
:103050000E94F611C701B60127E0660F771F881F8F
:10306000991F2A95D1F7A50194010E947037422F2C
:1030700001E024E06CE370E090E080E00E94920DBB
:10308000DF91CF910F91FF90EF90DF90CF90BF90A5
:10309000AF909F908F907F906F905F904F9008952A
:1030A0002F923F924F925F926F927F928F929F9258
:1030B000AF92BF92CF92DF92EF92FF920F931F9346
:1030C000CF93DF9300D000D000D0CDB7DEB786E03D
:1030D0000E94BB0E21E0892B09F020E020936402BE
:1030E00030E020E041E050E06FE370E090E080E00D
:1030F0000E94A4124FE3442E512C612C712C57E5F1
:10310000252E312C0E94560D1A82198210E000E003
:1031100041E069817A81C8010E94DA0B0B5F1F4F81
:1031200001341105A9F729813A812B5F3F4F3A837A
:1031300029832134310551F7C12CD12C76011E820F
:103140001D8260E070E088EC93E40E941D156983A5
:103150007A838B839C83C701B601A30192010E94ED
:103160007037CA01B9010E943D360E941D150FE358
:1031700010E02D813E81021B130B0E94EE384B01A3
:103180005C0126E0880C991CAA1CBB1C2A95D1F76F
:1031900069817A818B819C810E94EE389B01AC0110
:1031A000C501B4010E947037A22EB12C41E0B801D4
:1031B000C5010E94DA0B80916F0290917002959583
:1031C00087952D813E818217930781F421E047E0A6
:1031D0006CE370E08D819E81681B790BC5010E94B4
:1031E000690D43E0B801C5010E94B40D2D813E81F7
:1031F0002F5F3F4F3E832D8330E9C30E31E0D31E56
:10320000E11CF11C8D819E818039914009F099CF9C
:1032100031E03093DF021092DE028CE390E0909375
:10322000DB028093DA0220E330E03093DD0220936A
:10323000DC0285EF9EE00E94F6118CE390E0909313
:10324000DB028093DA0228E330E03093DD02209342
:10325000DC0280EF9EE00E94F6111092DF0231E066
:103260003093DE023092DB022092DA0280E390E0BB
:103270009093DD028093DC02A0916F02B091700206
:10328000B595A79520E931E00E94283BA301920162
:103290000E947037CA01B9014AE050E00E949716B7
:1032A00081E392E00E9446163092DB022092DA021D
:1032B00028E330E03093DD022093DC02A0916F021E
:1032C000B0917002B595A79520E931E00E94283BA6
:1032D000A30192010E947037CA01B9010E943D36D4
:1032E0000E941D1542E00E94081781E392E00E94AF
:1032F00046160E9456100E94341686E00E94BB0EAD
:10330000892B09F0FFCE809164028111FBCE2696B5
:103310000FB6F894DEBF0FBECDBFDF91CF911F91E6
:103320000F91FF90EF90DF90CF90BF90AF909F9064
:103330008F907F906F905F904F903F902F90089567
:10334000CF92DF92EF92FF920F931F93CF93DF9371
:103350007C010E94560D81E08093E00200E110E0C4
:10336000D0E0C0E08CE0C82ED12CD092DB02C0921D
:10337000DA021093DD020093DC028DEE9EE00E94E3
:10338000F61167E070E0CE010E94C41688EE9EE060
:103390000E94F611F70161917191819191917F01E4
:1033A00047E00E9408172196085F1F4FC430D105DF
:1033B000E1F60E94561086E00E94BB0E21E0892BA8
:1033C00009F020E02093640286E00E94BB0E892B66
:1033D00021F480916402882319F00E943416F4CFFE
:1033E000DF91CF911F910F91FF90EF90DF90CF90E1
:1033F0000895CF92DF92EF92FF920F931F93CF9396
:10340000DF93C82F81E0DC2FD827D093DF02C09351
:10341000DE028093E0020C2F29E046E666E370E0CE
:1034200081E090E00E94BA102091900230919102C8
:10343000253F81E03807B8F4A4E6B0E00E94FB37EE
:1034400024EF31E040E050E00E947037BA01A9015A
:103450004E5F5F4F6F4F7F4F29E066E370E081E082
:1034600090E00E94920D60915E0270915F028091E7
:103470006002909161020E94EE389B01AC01A4E6CB
:10348000B0E00E948F3734EFC32EDD24D394E12CBB
:10349000F12CA70196010E947037DA01C90102964A
:1034A000A11DB11D02970C2F27E043E067E370E0F8
:1034B0000E94920D60915E0270915F0280916002A5
:1034C000909161020E94EE389B01AC01A4E6B0E04D
:1034D0000E948F37A70196010E947037DA01C90157
:1034E0000296A11DB11D039721E045E06FE370E056
:1034F0000E94920D60915E0270915F028091600265
:10350000909161020E94EE389B01AC01A4E6B0E00C
:103510000E948F37A70196010E94703789019A0196
:103520000E5F1F4F2F4F3F4F0150110946E3E42E0E
:10353000F12C4D2FB701C8010E94DA0B8FEFE81A6A
:10354000F80A80E4E816F104A1F760915E02709138
:103550005F0280916002909161020E94EE389B01AF
:10356000AC01A4E6B0E00E948F3724EF31E040E0E8
:1035700050E00E947037DA01C9010296A11DB11D09
:103580000397ED2E04E025E044E85EE06CE370E094
:103590000E94F80B0C2F29E047E166E370E088E613
:1035A00090E00E94BA106091890270918A02809125
:1035B0008B0290918C020E94EE389B01AC012F5F30
:1035C000310941095109A7E1B0E00E948F37CC24AD
:1035D000C394DD24DA94ED2CFD2CA70196010E9402
:1035E0007037422F29E066E370E088E690E00E94A1
:1035F000920DC093DF02D093DE0282E090E09093C0
:10360000DB028093DA0207E310E01093DD020093FF
:10361000DC0260915E0270915F0280916002909185
:10362000610240E00E94081789E690E09093DB0277
:103630008093DA021093DD020093DC02609189022C
:1036400070918A0280918B0290918C020E94EE38D8
:103650009B01AC012F5F310941095109A4E6B0E09B
:103660000E948F37A70196010E947037CA01B901E5
:103670004AE050E00E94971682E89EE00E94F61110
:10368000D093DF02C093DE02DF91CF911F910F91A3
:10369000FF90EF90DF90CF9008951F93CF93DF932B
:1036A000EC01162F0E945A37181739F0612FCE01FE
:1036B000DF91CF911F910C946237DF91CF911F91D1
:1036C00008950C945A378F929F92AF92BF92CF92E7
:1036D000DF92EF92FF920F931F93CF93DF939CE1C2
:1036E000899F80011124E80165969EE1E92E91E011
:1036F000F92E6801EDE1CE0ED11CCE010E94611BB6
:10370000F70181937F012196CC15DD05B1F782E0A9
:10371000C82E81E0D82E7801FDE2EF0EF11C5E018B
:1037200084E0A80EB11C289646018501C8010E94BC
:103730005A37F40181934F010F5F1F4FC017D10714
:10374000A9F7F4E0CF0ED11CE501EA14FB0439F728
:10375000DF91CF911F910F91FF90EF90DF90CF906D
:10376000BF90AF909F908F9008957F928F929F927D
:10377000AF92BF92CF92DF92EF92FF920F931F937F
:10378000CF93DF936091170182E090E00E944D1B80
:103790006091160183E090E00E944D1B609115013D
:1037A00084E090E00E944D1B6091140185E090E060
:1037B0000E944D1B6091130186E090E00E944D1B1A
:1037C00060911B0187E090E00E944D1B60911A01FF
:1037D00088E090E00E944D1B6091190189E090E023
:1037E0000E944D1B609125018AE090E00E944D1BD4
:1037F000609118018BE090E00E944D1B60911D01CB
:103800008CE090E00E944D1B60915B028DE090E0A7
:103810000E944D1B609112018EE090E00E944D1BB2
:10382000609188028FE090E00E944D1B60915C02E5
:1038300080E190E00E944D1B6091850281E190E063
:103840000E944D1B6091630282E190E00E944D1B3B
:103850006091620283E190E00E944D1B60915D02E5
:1038600084E190E00E944D1B00915B020F31F0F566
:103870008CE1089F80011124E80165969EE1E92E04
:1038800091E0F92E6801EDE1CE0ED11CF7016191B6
:103890007F01CE010E944D1B2196CC15DD05B1F7AD
:1038A00082E0E82E81E0F82E035D1F4F6E01F4E008
:1038B000CF0ED11C289657014601F50171905F018A
:1038C000C4010E945A37781621F0672DC4010E9466
:1038D0006237FFEF8F1A9F0AC815D90571F784E088
:1038E000E80EF11CE6010C151D0501F7DF91CF91E3
:1038F0001F910F91FF90EF90DF90CF90BF90AF900E
:103900009F908F907F9008958F929F92AF92BF92D9
:10391000CF92DF92EF92FF920F931F93CF93DF939B
:103920003EE1E32E31E0F32E10E000E0B12C42E066
:10393000A42E50E3C52ED12C86E00E94BB0E21E0C0
:10394000892B09F020E02093640221E430E041E07B
:1039500050E060E670E08FE190E00E94A412809158
:103960006F029091700295958795C82F8F3191F5D0
:103970002FE530E041E050E060E670E08FE190E05C
:103980000E94A412CFE50E94560DA092E00210936F
:10399000DB020093DA02D092DD02C092DC028EE5F7
:1039A0000E94F1111092DB021092DA0280E290E0A4
:1039B0009093DD028093DC028EE1882E81E0982EC8
:1039C000D0E0DB15A9F0F40181914F010E94F111C3
:1039D000DF5FF7CF8036B9F620E230E041E050E01B
:1039E00060E670E08FE190E00E94A412C0E2CBCFCD
:1039F0001093DB020093DA0280E290E09093DD0204
:103A00008093DC028C2F0E94F1110E9434160E94D8
:103A1000561086E00E94BB0E892B09F0A0CF809142
:103A2000640281119CCFF701C1937F010E94B51BF5
:103A30000E94C3126AE070E080E090E00E94D00F24
:103A4000BB24B394BD0E005F1F4FF6E0BF1274CFCE
:103A500010922401DF91CF911F910F91FF90EF9071
:103A6000DF90CF90BF90AF909F908F9008950E946D
:103A7000413DEF920F93CF93DF93CDB7DEB72B97F6
:103A80000FB6F894DEBF0FBECDBFE82FF0E08091F7
:103A90008802EE0FFF1F811119C0E556FE4F4081CD
:103AA0005181EE24E3940EE02CE162E370E082E3C6
:103AB00090E00E94F80B2B960FB6F894DEBF0FBE75
:103AC000CDBFDF91CF910F91EF90089580E390E00B
:103AD0009093DB028093DA0284E390E09093DD021E
:103AE0008093DC0281E08093E002E857F14F65911A
:103AF0007491CE0101960E942F3680E0282F30E08D
:103B0000E1E0F0E0EC0FFD1FE20FF31F908199233D
:103B100011F08F5FF3CF4AEF4203C001439F900D36
:103B2000112480589F4F97FD019695958795909306
:103B3000DB028093DA0284E390E09093DD028093CD
:103B4000DC02CE0101960E944616B5CF2F923F921D
:103B50004F925F926F927F928F929F92AF92BF929D
:103B6000CF92DF92EF92FF920F931F93CF93DF9349
:103B700000D01F92CDB7DEB7898386E00E94BB0ECE
:103B800021E0892B09F020E0209364025AE0252EE1
:103B9000312C0E94560D00916F0210917002159504
:103BA000079526E02093E00231E03093DF02109287
:103BB000DE026091470270914802072E000C880BCC
:103BC000990B0E943D362B013C0141E4A42E42E0BA
:103BD000B42E750182E090E09B838A83EA81FB81A9
:103BE000BF01FF0F880B990B0E943D369B01AC0172
:103BF00060E070E080E291E40E9468399B01AC01D2
:103C0000C301B2010E947C380E94EE38CB01B101A1
:103C10000E940E3BF701819391937F012A813B81A2
:103C2000215031093B832A832F3F3F4FB9F6109330
:103C30004802009347028BE3E82E82E0F82E94E0DE
:103C4000C92ED12C22E0822E912CB401092C000C1B
:103C5000880B990B0E943D369B01AC0160E070E03F
:103C600080E291E40E9468392B013C016091470297
:103C700070914802072E000C880B990B0E943D366C
:103C8000A30192010E947C380E94EE38CB01B10161
:103C90000E940E3BF50120813181821B930B42E390
:103CA000489F9001499F300D1124F7016081718177
:103CB000260F371F3B832A83232B09F086C01182EE
:103CC000108201E022E346E270E060E0C601049762
:103CD0000E94920D0EEC1FEF2FEF3FEF3B832A83E4
:103CE000F7018081918124E030E0281B390BC90164
:103CF000800F911FD092DB02C092DA029093DD0216
:103D00008093DC02F501808191816AE070E02A8174
:103D10003B81820F931F0E94C4168A819B8101966A
:103D20009B838A830E5C1F4F0297D1F692E0E90EC7
:103D3000F11CE1E08E1A9108F2E0AF0EB11C2CE20A
:103D4000C20ED11C38E8C316D10409F07ECF00E0C2
:103D500022E040E870E060E090E080E00E94920D98
:103D600020E140E860E370E090E080E00E94920D86
:103D700089810E94391D0E9456100E94341686E0E7
:103D80000E94BB0E892B09F004CF8091640281113F
:103D900000CF0E94C31280914702909148020F9079
:103DA0000F900F90DF91CF911F910F91FF90EF90A7
:103DB000DF90CF90BF90AF909F908F907F906F904B
:103DC0005F904F903F902F9008956A817B8171950D
:103DD00061957109072E000C880B990B0E943D36E6
:103DE0002DEC3CEC4CE45FE30E949C362B013C0143
:103DF0002A813B81B901330F880B990B0E943D3614
:103E00009B01AC01C301B2010E940B380E94EE3845
:103E1000F7017183608355CF9C0144E650E064E86C
:103E200073E090E080E00E94A41288E00E94A61D4A
:103E3000BC01665A7F4F9C014AE050E00E94A412E8
:103E400088E00E94A61DBC01675F7F4F9C0141E096
:103E500050E00E94A41288E00C94A61D2F923F927D
:103E60004F925F926F927F928F929F92AF92BF928A
:103E7000CF92DF92EF92FF920F931F93CF93DF9336
:103E8000D82E282F30E0E0916502F0E0EF5BFE4F86
:103E900060816150770B41E050E090E080E00E944B
:103EA000A41286E00E94BB0E21E0892B09F020E0DD
:103EB000209364021092DF0281E08093DE0238E3F7
:103EC000632EE0906F02F0907002F594E794AE2CB0
:103ED0008701112798012D193109629EC001639E47
:103EE000900D1124C80FD91F209709F16627772755
:103EF0006C1B7D0B072E000C880B990B0E943D3626
:103F000020E030E040E05FE30E949C361B012C0182
:103F1000BE01DD0F880B990B0E943D369B01AC0161
:103F2000C201B1010E940B380E94EE38EB010E94E1
:103F3000560D025011094E0185E0B82E93E0792EFE
:103F40007A0CC0906502D12C17FD20C0F601EF5B02
:103F5000FE4F808180171106C9F0C4F0E1E4F1E062
:103F600070E060E0CF01815491408C159D0534F4E0
:103F70008191680F711DF6CFDE2CA3CF872D8B1991
:103F8000680FC401885491090E941512BA940F5FFA
:103F90001F4F88E3880E911CB110D3CFE1E4F1E00C
:103FA00090E080E09F01215431402C153D0524F420
:103FB0002191820F911DF6CF8E0D0E94391D0E9416
:103FC00056100E94341686E00E94BB0E892BA1F683
:103FD000809164028111D0CF0E94C3128A2DDF919B
:103FE000CF911F910F91FF90EF90DF90CF90BF90F6
:103FF000AF909F908F907F906F905F904F903F9089
:104000002F9008959F92AF92BF92CF92DF92EF923E
:10401000FF920F931F93CF93DF93D0905B02FF2407
:10402000F394D11001C0F12C2D2D30E060911201DC
:104030006150770B41E050E090E080E00E94A412D4
:1040400086E00E94BB0E21E0892B09F020E020933E
:10405000640286EA0E947310BB24B394F2E0AF2E90
:104060000CE010E00E94560DC0916F02D0917002DA
:10407000D595C795EC2E8F2DFF0C990B8C0F911DAC
:104080008D199109F12C97FD06C08330910514F02C
:1040900082E090E0F82EB092DF021092DE02A09251
:1040A000E0021092DB021092DA021092DD0210920E
:1040B000DC028DED9EE00E94F6111092DF02B092BC
:1040C000DE021092DB021092DA028F2D0F2C000C10
:1040D000990B019664E0880F991F6A95E1F7909318
:1040E000DD028093DC028BED9EE00E94F6119C2E97
:1040F0009F1870E1C72ED12C80911201981690F470
:104100001093DB020093DA02D092DD02C092DC024F
:104110008EE1891518F0892D0E94631B8EE191E0D4
:104120000E9446169394E0E1CE0ED11CF0E4CF1627
:10413000D10411F70E9434160E94561086E00E94A6
:10414000BB0E892BA1F580916402811130C00E94C1
:10415000C312E0925B022EE12E1518F08E2D0E9404
:10416000631B0E94C3120EE111E0F80101900020D0
:10417000E9F78F010F511140B8016F5F7F4F90E059
:1041800080E00E94843CEC01009799F482E091E089
:104190000E94A019DF91CF911F910F91FF90EF9096
:1041A000DF90CF90BF90AF909F900C945018DC2E72
:1041B00059CF18826EE171E00E945F3D012B09F436
:1041C000B2C061E371E0CE010E94563D892B09F037
:1041D0008DC030E020E044E050E06FEF73E090E00D
:1041E00080E00E94A41286E00E94BB0E21E0892B91
:1041F00009F020E02093640281E08093E0020E94B5
:10420000560DD12CC12CB12CA12C8501F12CE12C07
:1042100080916F029091700295958795800F911F04
:10422000813094400CF049C0F092DB02E092DA0257
:10423000D092DD02C092DC0280916F0290917002F8
:10424000959587956AE070E0800F911F0E94C416D3
:1042500088ED9EE00E94F61180916F0290917002AD
:1042600095958795800F911F0E945A37682F70E0AF
:1042700090E080E04AE00E945316C701C6969093F2
:10428000DB028093DA02D092DD02C092DC028091E0
:104290006F029091700295958795800F911F0E94F3
:1042A0005A370E94F1110F5F1F4F20E4E20EF11CFC
:1042B00080E8E816F10409F0ABCFE2E0AE0EB11CE5
:1042C000F8E0CF0ED11C20E1A216B10409F09DCF79
:1042D0000E9434160E94561086E00E94BB0E892B65
:1042E00009F08DCF80916402811189CF69E371E07B
:1042F000CE010E94563D8C01892BA9F487E0809362
:10430000650280E00E942E1F882369F06FEFC801CC
:104310000E9462370F5F1F4F011584E01807B1F745
:10432000F0E0E0E0099582E091E00E94A0190E948F
:104330005018CE01DF91CF911F910F91FF90EF9018
:10434000DF90CF90BF90AF909F900C94FB3B4F922B
:104350005F926F927F928F929F92AF92BF92CF9215
:10436000DF92EF92FF92CF93C82F6FEF70E089E05A
:104370000E944E0F8BEA94E00197F1F78EE00E94C5
:10438000F0157C018AE00E94BB0E90913A029817CA
:1043900029F091E090937C0280933A028091010190
:1043A0009FEF980F90930101811106C00E941E1685
:1043B00090938702809386026091890270918A02AD
:1043C00080918B0290918C020E94EE3889E00E94CD
:1043D0004E0F8090810290908202A0908302B09054
:1043E0008402B70190E080E00E943B36A501940171
:1043F0000E940A382DEC3CEC4CE45DE30E949C36B4
:10440000A50194010E940B3860938102709382028F
:1044100080938302909384020E941D156B017C019E
:10442000C0927802D0927902E0927A02F0927B02F6
:10443000609190027091910290E080E00E943B3682
:104440002B013C0180905E0290905F02A090600280
:10445000B0906102A50194010E94363681114BC0D3
:10446000A7019601C301B2010E940A382B013C0149
:1044700020E030E0A9010E946339181694F520E08D
:1044800030E040EA50E4C301B2010E9463391816DB
:1044900094F1609190027091910290E080E00E940E
:1044A0003B36A50194010E940A382B013C0120E013
:1044B00030E0A9010E946339181634F520E030E09D
:1044C00040E85FE3C301B2010E943636181634F1AA
:1044D000C501B4010E94F538709391026093900277
:1044E0001DC020E030E040EA50ECC301B2010E9460
:1044F000363687FFCECFC701B6010E94F5387093DC
:10450000910260939002C5CF20E030E040E85FEB7D
:10451000C301B2010E94633987FFDACF609176024E
:104520007091770290E080E00E943B36A7019601EF
:104530000E940A386B017C0120E030E0A9010E9452
:10454000633918160CF066C0C701B6010E94F53831
:104550006A30710508F062C080912601811105C0A2
:1045600080911C0181110E94C31281E08093260179
:1045700010921C018091900290919102853F21E060
:10458000920710F0109200012091000121114CC0FF
:10459000843F914008F048C0CC2309F445C06FEF38
:1045A00070E089E00E944E0F0E94C312C1E0C093E8
:1045B00000010E9402200E94B51BC0937C028EE085
:1045C0000E94F015BC0190E080E00E943B366093B1
:1045D00081027093820280938302909384021092EE
:1045E0006E02209176023091770245E050E060E95A
:1045F00071E084E690E0CF91FF90EF90DF90CF9054
:10460000BF90AF909F908F907F906F905F904F90F2
:104610000C94A412C701B601905898CF10922601AD
:1046200081E080931C01A6CFCF91FF90EF90DF90A7
:10463000CF90BF90AF909F908F907F906F905F9042
:104640004F9008951F920F920FB60F9211242F933F
:104650003F938F939F93AF93BF9380914E0290911E
:104660004F02A0915002B091510230914D0223E0CF
:10467000230F2D3758F50196A11DB11D20934D0232
:1046800080934E0290934F02A0935002B093510238
:104690008091520290915302A0915402B091550220
:1046A0000196A11DB11D8093520290935302A093D5
:1046B0005402B0935502BF91AF919F918F913F915A
:1046C0002F910F900FBE0F901F90189526E8230F83
:1046D0000296A11DB11DD2CF1F920F920FB60F925D
:1046E00011248F93EF93FF93E0E6F0E080818064E4
:1046F0008083FF91EF918F910F900FBE0F901F90CD
:1047000018951F920F920FB60F9211242F933F937B
:104710004F935F936F937F938F939F93EF93FF9349
:1047200083B1817029B190915802981709F49DC006
:1047300030E0220F232F221F330B922F8093580239
:1047400040915702241709F490C0209357022091FA
:10475000340230913502981719F0319521953109BD
:1047600040916F025091700260913802709139024D
:10477000240F351F261737070CF48BC02091340205
:1047800030913502981719F03195219531094091F2
:104790006F02509170026091360270913702240FBF
:1047A000351F621773070CF46FC0409134025091AB
:1047B0003502981719F051954195510920916F02D2
:1047C00030917002240F351F3093700220936F02D6
:1047D00041E0981340E020915602421709F440C08E
:1047E0002091340230913502981719F031952195B6
:1047F000310960916F0270917002E0913802F0917E
:104800003902260F371F2E173F070CF44CC020919A
:10481000340230913502981719F0319521953109FC
:1048200060916F0270917002E0913602F091370250
:10483000260F371FE217F3078CF1209134023091D5
:104840003502981719F031952195310980916F0241
:1048500090917002820F931F9093700280936F0269
:104860004093560281E080937C02FF91EF919F91EB
:104870008F917F916F915F914F913F912F910F9009
:104880000FBE0F901F90189520913602309137027D
:104890009BCF209138023091390296CF8091360219
:1048A00090913702D9CF8091380290913902D4CFBC
:1048B0001895CF93DF93CDB7DEB7C554D1090FB6A6
:1048C000F894DEBF0FBECDBF789484B5826084BDFE
:1048D00084B5816084BD85B5826085BD85B5816004
:1048E00085BD80916E00816080936E001092810082
:1048F000809181008260809381008091810081603D
:1049000080938100809180008160809380008091FD
:10491000B10084608093B1008091B0008160809389
:10492000B00080917A00846080937A0080917A0050
:10493000826080937A0080917A00816080937A000F
:1049400080917A00806880937A001092C100A895C7
:1049500084B7877F84BF8091600088618093600006
:1049600087E18093600080916000806480936000A4
:10497000809160008860809360001092B90088E4A4
:104980008093B8000E944C1080E00E94421003E522
:1049900014E1F80184910E9442100F5F1F4FF4E16F
:1049A00002371F07B1F70E943A1011E01093B800C8
:1049B0000E94561082E48093D60260E08EE00E944E
:1049C000120F60E08FE00E94120F61E085E00E940C
:1049D000120F61E089E00E94120F62E087E00E94FE
:1049E000120F62E088E00E94120F62E086E00E94EF
:1049F000120F62E08AE00E94120F6FEF70E089E010
:104A00000E944E0F60E085E00E94E40E80917A00E3
:104A1000876080937A0080917A00886080937A0022
:104A2000789410936B00109368001BBB90E080E0BB
:104A30000E94611B182F81E090E00E94611B912F62
:104A40008C30944109F079C182E090E00E94611BB2
:104A5000182F83E090E00E94611B912F9093170123
:104A60008093160184E090E00E94611B182F85E07E
:104A700090E00E94611B912F909315018093140187
:104A800086E090E00E94611B8093130187E090E034
:104A90000E94611B80931B0188E090E00E94611BD3
:104AA00080931A0189E090E00E94611B80931901B4
:104AB0008AE090E00E94611B809325018BE090E0EA
:104AC0000E94611B91E0811101C090E09093180158
:104AD0008CE090E00E94611B91E0811101C090E0A8
:104AE00090931D018DE090E00E94611B80935B021A
:104AF0008EE090E00E94611B809312018FE090E0B5
:104B00000E94611B8093880280E190E00E94611BFB
:104B100091E0811101C090E090935C0281E190E00E
:104B20000E94611B8093850282E190E00E94611BDC
:104B3000182F83E190E00E94611B912F90936302F4
:104B40008093620284E190E00E94611B91E08111F8
:104B500001C090E090935D0280915B028F3110F470
:104B60000E94631B10915C0280EC111101C088EC63
:104B70000E94731080EA111101C081EA0E94731033
:104B800081E80E94731080E20E94731010927D02EF
:104B900080E280937E0280E480937F0280E68093AF
:104BA00080028091620290916302892B19F10E9428
:104BB000560D68E088E290E00E94151288E00E949D
:104BC000391D0E94561068EE73E080E090E00E946C
:104BD000D00F0E94C3120E94C3120E94C31290E021
:104BE00080E00E940C1F20916202309163028217C4
:104BF0009307E9F60E94761590935A028093590222
:104C00000E941E16909387028093860200911601DF
:104C10001091170110937702009376028EE00E94A4
:104C2000F015BC0190E080E00E943B366B017C01F6
:104C3000C0928102D0928202E0928302F0928402BA
:104C40000E94B215C701B6010E941D15609378023B
:104C50007093790280937A0290937B0220E030E097
:104C600040EA51E40E940B386B017C01B80190E0EE
:104C700080E00E943B369B01AC01C701B6010E9457
:104C8000363687FF05C070E060E089E00E944E0F75
:104C90001092C4021092C5021092C6021092C7026E
:104CA000412C512CAFE76A2EA3E47A2E4092C80221
:104CB0005092C9026092CA027092CB02A090B002D8
:104CC000B090B1028091CC02D501CD90DD90ED90F5
:104CD000FC90882311F40C94D434A3019201C701F1
:104CE000B6010E94633918160CF03FC1F5014082ED
:104CF0005182628273828090B8029090B902A09033
:104D0000BA02B090BB02C090C802D090C902E09035
:104D1000CA02F090CB02A7019601C501B4010E941E
:104D2000633918160CF031C1C092B802D092B902A2
:104D3000E092BA02F092BB0238C1B12CA12C312C06
:104D4000212C10E000E06624639448E0842E912C2E
:104D500058E1452E512C0E94D7352FEF30E040E02E
:104D600050E00E9470376B017C016FA3C8010E9464
:104D70006237C8010E945A37782E3FA13813E4C029
:104D80004FEF241A340A0E940E10882309F48DC0B4
:104D90000E94560D82E08093E0026092DF02109242
:104DA000DE021092DB021092DA021092DD02109203
:104DB000DC0280EA94E10E94F6116092E002909297
:104DC000DB028092DA02A8E2B0E0B093DD02A093A9
:104DD000DC026AE070E0C8010E94C4168EE994E12A
:104DE0000E94F6114AE060E074E080E090E00E94EA
:104DF00053161092DF026092DE029092DB028092E4
:104E0000DA025092DD024092DC0288E994E10E94CD
:104E1000F6116AE070E0C1010E94C416E8E4F0E017
:104E2000F093DB02E093DA025092DD024092DC0262
:104E300082E994E10E94F6116AE070E0C5010E94E7
:104E4000C4169092DB028092DA0220E230E03093C6
:104E5000DD022093DC028CE894E10E94F611C70188
:104E6000B6017727882799274AE00E94531648E41D
:104E700050E05093DB024093DA0280E290E090939E
:104E8000DD028093DC0286E894E10E94F611672D32
:104E900070E090E080E04AE00E94531660E074E029
:104EA000C8010E94E0170E9456100F5F1F4F0115A6
:104EB00094E0190709F04FCF02E011E0B6E1EB2EC4
:104EC000F12C80E1C82ED12C9FE1892E912C2CE26F
:104ED000622E712C38EE232E33E0332E412C512CD0
:104EE000A114B104A9F10E94560D0093E0021092A2
:104EF000DF021093DE02F092DB02E092DA02D0923F
:104F0000DD02C092DC028EE794E10E94F61110935C
:104F1000E0029092DB028092DA027092DD026092EF
:104F2000DC021093DF021092DE020E940210A20146
:104F300091010E94D93720FD04C082E794E10E94CC
:104F4000F6110E945610CCCF5FEFA51AB50A1BCF01
:104F500064E190E080E00E944D1B6CE081E090E015
:104F60000E944D1B0E94B51BF7CD20E030E0A90147
:104F7000C701B6010E94363687FFBDCED5011D920E
:104F80001D921D921C921397B6CEC090C402D09071
:104F9000C502E090C602F090C702A7019601C501C4
:104FA000B4010E94363687FDBFCE81E08093CC02EB
:104FB00083B181708093580289B190E0880F892F66
:104FC000881F990B809357022091580290915702A5
:104FD00081E0291380E080935602980145E050E07B
:104FE00060E971E084E690E00E94A4120E94021041
:104FF00060937202709373028093740290937502AF
:105000000E94C3120E94C3120E94560D82E0809338
:10501000E002ECE1EE2EF12CF092DB02E092DA02FB
:1050200008E110E01093DD020093DC0283EB94E1D1
:105030000E94F6110E9456106CEB72E080E090E046
:105040000E94D00F0E94560D81E08093DF021092E3
:10505000DE02F092DB02E092DA021093DD020093AE
:10506000DC028CEA94E10E94F6110E9456106CE278
:1050700071E080E090E00E94D00F80916F029091EB
:105080007002FC01F595E795FEAFEDAFF093770266
:10509000E093760286E00E94BB0E26968FAF26979D
:1050A000811196C080916E02882309F491C00E94FC
:1050B000C3120E9402106B017C01C0926A02D0925E
:1050C0006B02E0926C02F0926D0286E00E94BB0ED1
:1050D000892B59F40E9402106C197D098E099F09D1
:1050E000643F71408105910580F30E9402106C19A4
:1050F0007D098E099F09643F71408105910510F477
:105100000C94F93186EA0E9473106FEF70E089E029
:105110000E944E0F0E94C3121FA2109265028FA11F
:105120000E942E1F8FA38B3008F03EC0E82FF0E0C6
:10513000E456F74D0C94223BB928242F6D2FAE2F47
:10514000BC2FEC2FFA2FAA31BB31C631D43120E06D
:1051500030E0A901C701B6010E94363687FF25CF8E
:105160001092B8021092B9021092BA021092BB02C9
:105170001CCFAE014F5E5F4F5CA34BA3CE01839665
:105180009EA38DA311E0109365028FA10E942E1F94
:105190008FA3823009F4D0C508F053C1882309F4E5
:1051A00097C1813009F497C10E94B51B81E08093BB
:1051B0007C024DAD5EAD50937702409376029A012A
:1051C00045E050E060E971E084E690E00E94A412BE
:1051D00026965FAD269750936E0280918D028823AC
:1051E00009F1109119011123E9F00E940210C090F9
:1051F0006602D0906702E0906802F09069026C1934
:105200007D098E099F0928EE33E040E050E00E94BE
:10521000D937211738F010928D020E94C31281E015
:1052200080931C0180917C028823F1F180918E0291
:10523000882351F120E030E040EA51E460917802A7
:105240007091790280917A0290917B020E940B38D2
:105250006B017C01609176027091770290E080E0B2
:105260000E943B369B01AC01C701B6010E94363655
:1052700087FF05C070E060E089E00E944E0F0E9449
:10528000C31281E080931C0110927C0210928E0266
:1052900010928F020E940210609372027093730248
:1052A00080937402909375020E9402100091720222
:1052B000109173022091740230917502601B710B82
:1052C000820B930B20E63AEE40E050E00E94D93783
:1052D000122F2093710280918E0281110BC0809158
:1052E0001B01882339F0281728F081E080938E0273
:1052F0000E94C31280918F0281110BC080911A010C
:10530000882339F0181728F081E080938F020E94DB
:10531000C31281E00E94A72180E00E94E1120E9456
:105320000E10882311F40C946C34A0909002B0906D
:10533000910285EFA81681E0B80610F00C94BE32F9
:1053400080918F02882311F40C949C326FEF70E0EF
:1053500089E00E944E0F0E94560D0DE712E0B1E861
:105360002B2EB2E03B2E82E0882E912CA12CB12C6A
:1053700093E0492E512C612C712C0E94D735A50148
:1053800094010E947037AB01BC0141505109610981
:105390007109D8018C91682F640F613810F00C945A
:1053A00010326C931FA20E94D735FFA1CF2ED12CB3
:1053B000F12CE12CA30192010E9470376D5F7F4FA9
:1053C0008F4F9F4FA70196012617370748075907A8
:1053D00014F00C941532D801EC90F12C0E94D735C2
:1053E00024E130E040E050E00E9470376A507109DB
:1053F000810991096E0D7F1D6034710530F421E043
:1054000040E890E080E00E948010F801E080F12CFC
:105410000E94D73524E130E040E050E00E94703730
:10542000DC01CB010A97A109B1098E0D9F1D21E076
:1054300040E470E060E00E94690DFFA1FF5FFFA300
:10544000B2CF9FA1933009F47AC4943009F0ACCE66
:10545000809112018E3108F0E2C491E0980F909390
:10546000120180935B020E94841C8EE098E4A4E207
:10547000B1E48093020190930301A0930401B093DF
:10548000050122EA3CEB4DED5FE3209306013093EA
:10549000070140930801509309018DE091EEA9E5C1
:1054A000BBEB80930A0190930B01A0930C01B09386
:1054B0000D012CE031E248E956E320930E013093D0
:1054C0000F0140931001509311010E94B51B5ACE59
:1054D0000E94022057CEDE0111962D01712C612C05
:1054E00030E020E0662021F0F20132972081318106
:1054F00041E050E06FEF73E090E080E00E94A41282
:10550000B1E0B0931C0186E00E94BB0E21E0892B24
:1055100009F020E0209364021301EFEF2E1A3E0AF7
:105520000E94560DF1E0F093E00280E00E94A72176
:1055300080916F0290917002959587959093770274
:105540008093760281E00E94E11229E130E03093FD
:10555000DB022093DA021092DD021092DC0231E0CD
:105560003093DF021092DE028AEC94E10E94F61181
:1055700060918102709182028091830290918402F5
:1055800042E00E9408171092DF0241E04093DE02E1
:1055900060E1862E912C10E000E06801CC0CDD1C4F
:1055A000580144E0E42EF12C6A147B04A4F1F0923B
:1055B000DB02E092DA029092DD028092DC02F601D8
:1055C000E950FE4F6081718190E080E04AE00E94E6
:1055D000531688EF0E94F11187EC94E10E94F611B6
:1055E000A614B70409F0C4C180916F0290917002B3
:1055F0006AE070E0959587950E94C4165FEFA51A42
:10560000B50A80E4E80EF11C92E0C90ED11CA4E8B2
:10561000EA16F10449F60E5F1F4FB8E08B0E911C9D
:105620000A30110509F0B9CF69E070E0C1010E94AC
:10563000E0170E9434160E94561086E00E94BB0EAE
:10564000892B09F06DCF80916402811169CF80911F
:105650006F029091700295958795F20181939193D5
:105660002F010E94C3126AE070E080E090E00E9487
:10567000D00F3101F9E02F16310409F031CF6FEF6F
:1056800070E089E00E944E0F8BEA94E00197F1F7F9
:10569000FE01319621E081919191059640815181E1
:1056A000841795070CF020E04BA15CA14E175F0713
:1056B00091F7222309F41AC387E08093650264E01E
:1056C00070E089E090E00E94433B98AF8FAB64E0CC
:1056D00070E087E090E00E94433B9AAF89AF64E0BE
:1056E00070E089E090E00E94433B9CAF8BAF64E0A8
:1056F00070E084E090E00E94433B98AB8FA764E0A9
:1057000070E080E190E00E94433B9EA78DA7B7EF39
:10571000EB2EB1E0FB2ECFA8D8AC54E2C50ED11CC5
:105720000BAD1CAD2FA838ACF10180E090E0A0E8F3
:10573000BFE381939193A193B1931F01D7016D9121
:105740007D917D01072E000C880B990B0E943D3640
:10575000F80161937193819391938F01C214D304E3
:1057600019F729AD3AAD3CA72BA769013CE1C30E5F
:10577000D11C09AD1AADD8011D921D921D921D922A
:105780008D01FE013196FEABEDABEFA8F8AC812C9C
:10579000912C5401D7014D905D906D907D907D01CD
:1057A000A3019201C501B4010E940B384B015C01B9
:1057B000EDA9FEA961917191FEABEDAB970124506B
:1057C00031093AAB29AB072E000C880B990B0E94CC
:1057D0003D36A30192010E949C36A9A9BAA96D93F6
:1057E0007D938D939C931397E214F30499F6F8013B
:1057F000349780829182A282B3820C151D0509F034
:10580000BACFEFA5F8A9FEABEDAB6F01F0E1CF0E7B
:10581000D11C0FA518A92BAC3CAC24E2220E311CE4
:10582000D8011D921D921D921D928D01FE0131968F
:10583000FAABE9ABEBACFCAC812C912C5401D70159
:105840004D905D906D907D907D01A3019201C50109
:10585000B4010E940B384B015C01E9A9FAA96191DE
:105860007191FAABE9AB9701245031093CAB2BABFA
:10587000072E000C880B990B0E943D36A301920164
:105880000E949C36ABA9BCA96D937D938D939C938C
:1058900013972E143F0499F6F80134978082918271
:1058A000A282B382C016D10609F0BACF4DA55EA57B
:1058B000405C5F4F2DA53EA590E080E0F901E80F28
:1058C000F91FABA5BCA5A80FB91FCD90DD90ED9039
:1058D000FC90C082D182E282F382049680319105ED
:1058E00069F7EBA5FCA53496FCA7EBA7205F3F4F1B
:1058F0004217530709F7ADA5BEA5BCA7ABA7B12CAE
:10590000A12C1AAA19AAEBA5FCA5C080D180E2801F
:10591000F380E894F7F81501FFEF2F1A3F0A2BA543
:105920003CA53CAB2BAB8501410133E083169104D0
:1059300061F1ABA9BCA954964D905D906D907C909F
:105940005797E89477F8A7019601C301B2010E9426
:1059500063391816C4F026013701BFEF8B1A9B0A72
:10596000EBA9FCA97496FCABEBAB73016201DDCF34
:105970006AE070E0E1E0F0E0EC0FFD1FEC0DFD1DD2
:105980008081918139CE8401E8CF0A151B0509F485
:105990004AC0ADA4BEA429A93AA9A20EB31E000F05
:1059A000111F000F111FF801EE0FFF1FEE0FFF1F59
:1059B0004DA55EA5E40FF51F90E080E0D5014D9167
:1059C0005D916D917D915D01C080D180E280F38019
:1059D0009D0124503109D901CD92DD92ED92FC92C6
:1059E000139741935193619371930196843091057C
:1059F00029F7EDA9FEA980819181A281B3812FA50C
:105A000038A9020F131FF80140815181628173810F
:105A1000EDA9FEA94083518362837383F8018083DB
:105A20009183A283B3832DA93EA92C5F3F4F259676
:105A30003FAF2EAF2597E0EFAE2EBB24BA9449A915
:105A40005AA9A41AB50A0BA51CA53CAB2BAB610146
:105A5000780154E1E50EF11C4101F501EE0DFF1D49
:105A600089A99AA9E80FF91FD80150962D913D9167
:105A70004D915C91539760817181828193810E94E5
:105A80009C36EBA5FCA520813181428153810E9487
:105A90007C389B01AC01D7016D917D918D919C91DA
:105AA0000E940A38F70161937193819391937F016A
:105AB000FFEF8F1A9F0A24E08216910471F6ABA9BA
:105AC000BCA94D905D906D907D90BCABABAB7D0162
:105AD000B4E0EB1AF108EDA9FEA9208131814281E1
